:020000040800F2
:10000000380B002031020008E106000885060008D0
:10001000DD060008A5050008170F00080000000015
:10002000000000000000000000000000050A0008B9
:10003000A905000800000000710700081D0B00085A
:100040004B0200084B0200084B0200084B0200085C
:100050004B0200084B0200084B0200084B0200084C
:100060004B0200084B0200084B0200084B0200083C
:100070004B0200084B0200084B0200084B0200082C
:100080004B0200084B0200084B0200084B0200081C
:100090004B0200084B0200084B0200084B0200080C
:1000A0004B0200084B0200084B0200084B020008FC
:1000B0004B0200084B0200084B0200084B020008EC
:1000C0004B0200084B0200084B0200084B020008DC
:1000D0004B020008890B0008110C0008690C00088D
:1000E0004B0200084B0200084B0200084B020008BC
:1000F0004B0200084B0200084B0200084B020008AC
:100100004B0200084B0200084B0200084B0200089B
:100110004B0200084B0200084B0200084B0200088B
:100120004B0200084B0200084B0200084B0200087B
:100130004B0200084B0200084B0200084B0200086B
:100140004B0200084B0200084B0200084B0200085B
:100150004B0200084B0200084B0200084B0200084B
:100160004B0200084B0200084B0200084B0200083B
:100170004B0200084B0200084B0200084B0200082B
:100180004B0200084B02000800F002F800F041F8B2
:100190000AA090E8000C82448344AAF10107DA45E2
:1001A00001D100F036F8AFF2090EBAE80F0013F0F3
:1001B000010F18BFFB1A43F001031847E00F0000BE
:1001C00000100000103A24BF78C878C1FAD852074E
:1001D00024BF30C830C144BF04680C6070470000C1
:1001E0000023002400250026103A28BF78C1FBD840
:1001F000520728BF30C148BF0B607047732900F019
:100200008581002070471FB500F0BAFF1FBD10B5F3
:1002100010BD00F099F91146FFF7F5FF00F0D8FE88
:1002200000F0B7F903B4FFF7F2FF03BC00F07CFE67
:100230000948804709480047FEE7FEE7FEE7FEE77A
:10024000FEE7FEE7FEE7FEE7FEE7FEE704480549B6
:10025000054A064B70470000210B00088901000881
:1002600038050020380B0020380700203807002010
:10027000704700000FB4044910B503AA029800F0BB
:1002800049F910BC5DF814FB0C00002070B50C4659
:100290000546012A05D02878800600D5EA690023A2
:1002A00002E0012305E05B1C934202D2E05C0028DF
:1002B000F9D1A869E618C01AA861286A184428620A
:1002C0002846AFF3008004E0D5E9012114F8010BC2
:1002D0009047B442F8D32846AFF3008070BD0000C9
:1002E0002DE9F05F894604464FF0000ADFF874B14B
:1002F000FB44C0F820A02046E1688847002874D05D
:10030000252806D0D4E901219047206A401C2062AC
:10031000F1E700265F462046E16888472028054629
:1003200007DB312D05D2781910F8200C08B10643EF
:10033000F1E7B00701D526F00406C4F81CA0002799
:10034000C4F818A02A2D09D0284600F0E6FD38B3DD
:1003500004EB8708303DC8F8185019E059F8041B21
:10036000204604EB87029161E1688847012F05462A
:1003700018D1E069002820DA26F020061DE0D8F820
:10038000180000EB800005EB40003038C8F818007A
:100390002046E1688847054600F0BFFD0028EED101
:1003A000012F0AD02E2D08D12046E16888477F1CF6
:1003B0000546022F46F02006C4DBA069002803DAB8
:1003C000404246F00106A061F00701D026F0100679
:1003D0006C2D0BD0682D09D04C2D39D06A2D35D01D
:1003E000742D35D07A2D33D016E038E0E1682F46F1
:1003F00020468847B842054609D16C2F26D04FF4D5
:100400008060E168064320468847054604E06C2F7B
:100410001AD04FF4807006430DB3A5F1410019289E
:1004200002D8203546F400664A4629462046266012
:100430004E46FFF7E3FE80B101280BD0F61D26F0F3
:10044000070000F1080956E74020E4E78020D8E7DC
:100450000020D6E706F104094DE7284652E7206A56
:10046000BDE8F09F960E000040EA0103024630B559
:100470009B0710D14FF0013400E008C208C91D1BD2
:100480009D4315EAC41FF8D013F0FF0102F8011BC9
:100490000DD01B0AF8E711F8013B002B02F8013BD5
:1004A00005D011F8013B002B02F8013BF3D130BD20
:1004B000704770477047704701694A1C02610878AD
:1004C000704700B58FB0CDE9013100210591054994
:1004D0007944CDE9031011466846FFF701FF0FB0DC
:1004E00000BD0000E5FFFFFF10B5436913B1AFF396
:1004F000008001E0FFF7CAFE012010BD127800F174
:1005000024010A7000224A700122EDE711684FF0C1
:10051000FF32E9E7074B70B50D467B44FFF7D1FF8B
:100520000446284600F00CF810B14FF0FF3070BDC3
:10053000204670BD970A000000487047D80400208C
:10054000007B00F0800070477546FFF7F5FFAE4670
:1005500005006946534620F00700854618B020B5CF
:10056000FFF774FEBDE820404FF000064FF0000793
:100570004FF000084FF0000B21F00701AC46ACE84B
:10058000C009ACE8C009ACE8C009ACE8C0098D46B8
:10059000704710B50446AFF300802046BDE8104018
:1005A000FFF740BE00BFFEE77047F0B50A460021E6
:1005B0000023002400BF3DE0012505FA01F3156882
:1005C00005EA03049C4234D105684F000326BE406F
:1005D000B543056015794E00B540066835430560A2
:1005E0001579012D02D01579022D16D185684F009D
:1005F0000326BE40B543856055794E00B5408668F8
:1006000035438560456801268E40B54345604568A1
:1006100096798E40B6B235434560C5684F000326D3
:10062000BE40B543C560D5794E00B540C668354378
:10063000C560491C1029BFD3F0BDF0B500230024CC
:100640004D07ED0E02FA05F3CE1000F1200555F826
:1006500026504E07F70E0F26BE40B543CF1000F1CF
:10066000200646F82750CE1000F1200555F82650F8
:1006700045EA0304CE1000F1200545F82640F0BD00
:100680000183704700BFFEE7002101E000224254D1
:100690000A46491C825C002AF8D170471CB501212A
:1006A000202000F067F84FF4C060009001208DF822
:1006B000040000208DF8060003208DF805000120BD
:1006C0008DF8070069460448FFF76FFF4FF4C061DB
:1006D0000148FFF7D5FF1CBD0014024000BFFEE734
:1006E0007047000070B5002100230F22C4781CB3AE
:1006F000174C246804F4E064C4F5E064C4F30721F3
:10070000C1F10404E3B20A4144789C40E1B2847828
:10071000144021430C07210E0E4C057861550478D6
:1007200004F01F050124AC4005786D11AD0005F102
:10073000E025C5F8004109E0047804F01F05012414
:10074000AC40054D0678761145F8264070BD000096
:100750000CED00E000E400E080E100E0024901432C
:10076000024A1160704700000000FA050CED00E03D
:100770007047000029B1064A12680243044B1A6010
:1007800004E0034A12688243014B1A60704700007C
:100790003038024029B1064A12680243044B1A60FD
:1007A00004E0034A12688243014B1A60704700005C
:1007B0004038024029B1064A12680243044B1A60CD
:1007C00004E0034A12688243014B1A60704700003C
:1007D0002038024029B1064A12680243044B1A60CD
:1007E00004E0034A12688243014B1A60704700001C
:1007F0004438024029B1064A12680243044B1A6089
:1008000004E0034A12688243014B1A6070470000FB
:1008100024380240F0B500210022002402250026E1
:100820000223324F3F6807F00C0121B1042905D0A3
:10083000082937D105E02E4F076036E02D4F0760BD
:1008400033E02A4F3F1F3F68C7F38056274F3F1FB3
:100850003F6807F03F036EB1264FB7FBF3F7DFF8B1
:100860008CC0ACF1040CDCF800C0CCF3881C07FB96
:100870000CF40CE01E4FB7FBF3F7DFF870C0ACF1DF
:10088000040CDCF800C0CCF3881C07FB0CF4174FF9
:100890003F1F3F68C7F301477F1C7D00B4FBF5F79E
:1008A000076002E0124F076000BF00BF0F4F3F68B4
:1008B00007F0F0010909104F7A5C0768D7404760DC
:1008C0000A4F3F6807F4E051890A0B4F7A5C47688A
:1008D000D7408760054F3F6807F46041490B064FDA
:1008E0007A5C4768D740C760F0BD00000838024016
:1008F0000024F40040787D011400002070B5044607
:100900000D463F48006830B1012815D002282DD08F
:1009100003286FD14AE0232C0DD139480068401CD0
:1009200037490860084681688068401C344A9060F6
:1009300002F10C00445460E0402C0ED130480068B5
:10094000401C2F490860084681688068401C2C4A7A
:10095000906002F10C00445407E0232C03D10120E5
:100960002749086001E000F053FB46E0232C04D146
:10097000012023490860886017E0214884800068CE
:10098000401C1F490860084681688068401C1C4A5A
:10099000906002F10C0044540C388068C0F58070FF
:1009A000A04200DB0CB900F033FB26E0144881685C
:1009B0008068401C124A906002F10C0044540C38CC
:1009C0008088401E1146888008468068FF2801DD27
:1009D00000F01EFB0A48808850B909490C312846AE
:1009E000FFF742FD06480C30FFF74EFE00F010FB0B
:1009F00003E0FFE700F00CFB00BF00BF70BD00008C
:100A000024000020704700000CB5002001900090E9
:100A10003448006840F480303249086000BF3148F3
:100A2000006800F4003000900198401C019000988C
:100A300018B90198B0F5A04FF1D12A48006800F428
:100A4000003010B10120009001E0002000900098DB
:100A5000012846D123484030006840F080502149A9
:100A6000403108602048006840F440401E4908605A
:100A70001C48083000681B490831086008460068B7
:100A800040F4004008600846006840F4A050086048
:100A90001648091F0860081F006840F08070091F91
:100AA000086000BF0F48006800F000700028F9D00F
:100AB00040F205700E4908600A480830006820F0CE
:100AC00003000849083108600846006840F0020049
:100AD000086000BF03480830006800F00C000828D8
:100AE000F8D10CBD00380240007000401954400796
:100AF000003C0240042808D14FF0E021096941F090
:100B000004014FF0E022116107E04FF0E021096994
:100B100021F004014FF0E02211617047704700009E
:100B200010B51548006840F4700013490860134878
:100B3000006840F001001149086000200F490831A9
:100B400008600E4800680E4908400C4908600D48CE
:100B5000091D0860081F006820F48020091F086034
:100B6000002006490C310860FFF74EFF4FF000608F
:100B700001498039086010BD88ED00E0003802406E
:100B8000FFFFF6FE1030002410B540F225511D483D
:100B900000F002F910B31B4800F0B8F9C4B21A48CB
:100BA000008800F40040C8B91748008800F480406D
:100BB00060B10A2C03D000201349088020E01248BD
:100BC000008840F400401049088019E00D2C06D13F
:100BD0000D48008840F480400B49088010E00A4826
:100BE0000088C0F30D0009490C5407480088401CD8
:100BF0000549088008460088C72801DD00200880D4
:100C000010BD000000100140100000200F04002063
:100C100010B540F22551114800F0BEF8E0B10F4880
:100C200000F074F9C4B2242C07D10D200C490860DF
:100C300008460068401E08600EE009480068002869
:100C400005DD07480068C0F10D0006490C54044852
:100C50000068401E0249086010BD000000440040CA
:100C6000080000200204002010B540F2255106487B
:100C700000F092F838B1044800F048F9C4B20349D2
:100C80002046FFF73BFE10BD004800403002002028
:100C900021B1828942F40052828104E082894DF6BA
:100CA000FF731A408281704710B50446324884426F
:100CB00008D101211020FFF79DFD00211020FFF732
:100CC00099FD57E02D48844209D101214804FFF7DE
:100CD00071FD00214FF40030FFF76CFD4AE0284819
:100CE000844209D101218804FFF764FD00214FF4FB
:100CF0008020FFF75FFD3DE02248844209D10121B9
:100D0000C804FFF757FD00214FF40020FFF752FD04
:100D100030E01D48844209D101210805FFF74AFD52
:100D200000214FF48010FFF745FD23E0174884426F
:100D300008D101212020FFF75DFD00212020FFF7D1
:100D400059FD17E01248844209D101218807FFF7B5
:100D500031FD00214FF08040FFF72CFD0AE00D48E7
:100D6000844207D101214005FFF724FD00216005E1
:100D7000FFF720FD10BD00000010014000440040BE
:100D800000480040004C004000500040001401406A
:100D900000780040007C004070B50246002400232B
:100DA0000025002040F66A16B14200D100BFC1F311
:100DB000421501F01F03012606FA03F3012D02D1AB
:100DC0009689334006E0022D02D1168A334001E0B5
:100DD000968A33400C12012606FA04F41688344031
:100DE00013B10CB1012000E0002070BDF0B5034646
:100DF000002400260025002040F66A17B94200D1E1
:100E000000BF1846C1F3421401F01F06012707FA7C
:100E100006F5012C01D10C3004E0022C01D1103078
:100E200000E014301AB107682F43076002E007683A
:100E3000AF430760F0BD00002DE9FF4705460E46B1
:100E40000024A14600BFA046B08900B100BF2C8A93
:100E500024F44054F08804432C82AC8941F20C60A5
:100E60008443B08831890843718908430443AC81C5
:100E7000AC8A24F44074B0890443AC826846FFF71E
:100E8000C9FC2048854202D01F48854202D1DDF8C6
:100E90000C9001E0DDF80890A88900F4004040B112
:100EA00009EBC90000EB091031684900B0FBF1F70C
:100EB00007E009EBC90000EB091031688900B0FBBD
:100EC000F1F76420B7FBF0F004012009642101FB75
:100ED0001078A88900F4004040B1322000EBC8002F
:100EE000B0FBF1F000F00700044308E0322000EB13
:100EF00008106421B0FBF1F000F00F0004432C81D6
:100F0000BDE8FF87001001400014014001468888B9
:100F1000C0F30800704700BFFEE730380A2801D24E
:100F2000012070470020704700BF704710B504468D
:100F30006FF00400FFF7DEFDE11704EB5171C1F320
:100F4000C701074A11701046007800EB4001C1EB61
:100F5000C0104FF6FF7101EAC0000249088010BDC1
:100F600000000020020000200146114A12784A4386
:100F70004FF0E0235A6100229A611A46126942F04A
:100F800001021A6100BF4FF0E022106900F0010277
:100F90001AB100F48032002AF5D04FF0E022126935
:100FA00022F001024FF0E0231A6100229A6170479B
:100FB0000000002000BF054A128802F04002002A0B
:100FC000F9D0C2B2014B9A80704700000010014076
:100FD0004FF4A060FFF7C2FBA820FFF7A7FF4FF474
:100FE000E13000F01DF84FF4E13000F06FF8FFF74A
:100FF00055FB06E0034904A0FFF73CF90120FFF789
:10100000B3FFF7E73002002025730D0A000000004F
:101010000020024908608880886070472400002012
:1010200010B588B0044601210846FFF7A3FB012153
:101030001020FFF7CFFB072209212248FFF7FDFA16
:1010400007220A211F48FFF7F8FA4FF4C060069004
:1010500002208DF81C008DF81D0000208DF81E0068
:1010600001208DF81F0006A91648FFF79EFA02948A
:101070000020ADF80C00ADF80E00ADF81000ADF892
:1010800014000C20ADF8120002A90F48FFF7D4FE9F
:1010900001210D48FFF7FCFD012240F225510A48CD
:1010A000FFF7A4FE25208DF8040003208DF805002D
:1010B0008DF8060001208DF8070001A8FFF712FB4C
:1010C00008B010BD000002400010014010B588B00B
:1010D000044601210220FFF74DFB01218804FFF7A0
:1010E00059FB2548FFF7E0FD07220B212348FFF7B6
:1010F000A4FA07220A212148FFF79FFA4FF4406023
:10110000059002208DF818008DF8190000208DF848
:101110001A0001208DF81B0005A91848FFF745FAB1
:1011200001940020ADF80800ADF80A00ADF80C00FD
:10113000ADF810000C20ADF80E0001A90E48FFF725
:101140007BFE01210C48FFF7A3FD012240F225514F
:101150000948FFF74BFE27208DF81C0002208DF870
:101160001D0003208DF81E0001208DF81F0007A828
:10117000FFF7B8FA08B010BD004800400004024074
:101180004FF04070E1EE100A7047040000080000C4
:10119000000000000002000100001000BC11000867
:1011A0000000002024000000C4010008E011000835
:1011B00024000020140B0000E001000800000000E3
:1011C000000000000000000000000000000000001F
:1011D00000000000010203040102030406070809DD
:040000050800018965
:00000001FF
