:020000040800F2
:10000000180A0020DD020008191F0008D11E000890
:10001000151F0008F11D0008172600080000000049
:10002000000000000000000000000000D5200008D3
:10003000F51D000800000000A91F00088922000823
:10004000F7020008F7020008F7020008F7020008AC
:10005000F7020008F7020008F7020008F70200089C
:10006000F7020008F7020008F7020008F70200088C
:10007000F7020008F7020008F7020008F70200087C
:10008000F7020008F7020008F7020008F70200086C
:10009000F7020008F7020008F7020008F70200085C
:1000A000F7020008F7020008F7020008F70200084C
:1000B000F7020008F7020008F7020008F70200083C
:1000C000F7020008F7020008F7020008F70200082C
:1000D000F70200081123000899230008F123000803
:1000E000F7020008F7020008F7020008F70200080C
:1000F000F7020008F7020008F7020008F7020008FC
:10010000F7020008F7020008F7020008F7020008EB
:10011000F7020008F7020008F7020008F7020008DB
:10012000F7020008F7020008F7020008F7020008CB
:10013000F7020008F7020008F7020008F7020008BB
:10014000F7020008F7020008F7020008F7020008AB
:10015000F7020008F7020008F7020008F70200089B
:10016000F7020008F7020008F7020008F70200088B
:10017000F7020008F7020008F7020008F70200087B
:10018000F7020008F702000800F002F800F096F805
:100190000AA090E8000C82448344AAF10107DA45E2
:1001A00001D100F08BF8AFF2090EBAE80F0013F09E
:1001B000010F18BFFB1A43F001031847282800005D
:1001C00048280000103A24BF78C878C1FAD85207EE
:1001D00024BF30C830C144BF04680C6070470000C1
:1001E0000023002400250026103A28BF78C1FBD840
:1001F000520728BF30C148BF0B6070476E2900F01E
:100200000B82702900F04D83662902F0698365290D
:1002100002F06683672902F06383612902F062833A
:1002200003681B0A28BF41F08001692900F0B881EA
:10023000642900F0B581752900F0B2816F2900F0C2
:10024000DA82782900F01983E92900F07582E4291F
:1002500000F07282F52900F06F82EF2900F0D7825A
:10026000F82900F018830368DB0928BF41F08001FA
:10027000632901F03980732901F03E80E32901F000
:100280004980F32901F04E80002070471FB502F02D
:1002900022FB9DE8030000F0EBF801F09BF804005E
:1002A0000020002102F08AFA401C6060002000213A
:1002B00002F06EFAE0601FBD10B510BD01F05DF8F0
:1002C0001146FFF7E3FF02F0E9F901F039F903B451
:1002D000FFF7F2FF03BC02F0BFF9000009488047B6
:1002E00009480047FEE7FEE7FEE7FEE7FEE7FEE718
:1002F000FEE7FEE7FEE7FEE704480549054A064B30
:10030000704700008D2200088901000818040020B1
:10031000180A00201806002018060020704770B543
:10032000064600F089F8056806F10B0020F0070486
:10033000B4429CBF002070BD2B466A68BAB11068F9
:10034000A04210D304F1080188423CBF50685860B5
:1003500007D35168101941601168091B016058608A
:100360001460101D70BD13465268002AE7D1214663
:10037000284600F069F80028DED170BD70B504464B
:10038000051F00F059F80068002C14BF446870BDC8
:10039000002C18BFAC423CBF20466468F8D301680B
:1003A0000A18AA4218BF456003D12A6805461144BD
:1003B000016028684119A1421CBF6C6070BD616872
:1003C000696021680844286070BD00001CB50C46B7
:1003D000064B7B4469460090204600F036F90446FF
:1003E0000020694600F044F920461CBD9B02000035
:1003F00010B5431C02E010F8011B71B18107FAD15E
:100400004FF0013202C88C1A8C4314EAC211F9D0A1
:10041000C01A0A0603D0C01E10BDC01A10BD0A04BF
:1004200001D0801E10BD0902FCD0401E10BD7047D7
:10043000704770477047000000487047C0030020B5
:10044000704770477047704738B504460A46002029
:100450006946AFF30080002808BF38BD0246009906
:10046000204600F0F1FA012038BD012000F07EBFE7
:10047000F8B5AFF30080054600200C46102000BF01
:100480000646A819A0420DD9324669460020AFF3AE
:100490000080070008BF00F069FF0098A04218BF65
:1004A0000546C419FFF7C8FF05600746F01D20F098
:1004B00007004619284600F00AF8B44208BFF8BD04
:1004C000A21B31463868BDE8F84000F0BDBA0021F3
:1004D0000160C0E9011070471020704770B50446F4
:1004E00085690068C10601D5302600E02026C007D6
:1004F00007D070BDD4E9012130469047206A401CE6
:1005000020626D1EF6D570BD70B504468569007811
:10051000C00707D170BDD4E9012120209047206A8F
:10052000401C20626D1EF6D570BD09684A0501D5D4
:1005300040B27047C905FCD500B2704709684A054A
:1005400001D5C0B27047C905FCD580B2704770B5FF
:100550000C460546012A05D02878800600D5EA69B0
:10056000002302E0012305E05B1C934202D2E05C21
:100570000028F9D1A869E618C01AA861286A1844A9
:1005800028622846FFF7AAFF04E0D5E9012114F804
:10059000010B9047B442F8D32846FFF7B5FF70BD72
:1005A0002DE9F0410646002410687529314616A54C
:1005B00010D0FFF7BAFF002802DA404213A507E087
:1005C00031688A0701D512A502E0490704D511A5B3
:1005D000012401E0FFF7B2FF00210A2206F12407FF
:1005E00009E0B0FBF2FCB0FBF2F302FB1C00303080
:1005F00078541846491C0028F3D123462A46304631
:10060000BDE8F04100F07FBA000000002D000000BE
:100610002B0000002000000011680268006A5305EA
:1006200001D508700AE0D30501D5088006E013065D
:1006300003D5C217C1E9000200E00860012070473D
:1006400001694A1C02610878704700B58FB0CDE996
:1006500001310021059105497944CDE90310114686
:10066000684600F029F90FB000BD0000E5FFFFFF6C
:100670000A6802F8010B0A60704700002DE9FF5F6D
:1006800015468A460446DFF8AC80F8440027D8E9CE
:1006900000103E46CDE9001010E03AF816106A4608
:1006A00002A800F043FE411C07D02178890603D53B
:1006B000E269391891420DD80744761C20788006EB
:1006C00002D5E069B84205DDAE42E6DB3AF8160035
:1006D0000028E2D1A069C01BA0612046FFF7FEFE02
:1006E000D8E90010CDE90010002017E03AF8181002
:1006F0006A4602A800F01AFEB0F1FF3F81460BD017
:1007000000250DF1080B05E0D4E901211BF80500D7
:1007100090476D1C4D45F7D308F10100B04280466B
:10072000E4DB206A384420622046FFF7EDFEBDE896
:10073000FF9F00005A2200002DE9F0418046D21DA3
:1007400022F007020025D2E90002F52915A614D0EF
:10075000011E72F1000106DA0023D0EB030063EB07
:10076000020211A608E0D8F800108B0701D50FA6E9
:1007700002E0490701D50EA601251146002408F123
:10078000240704E000F07AF930323A55641C50EA4C
:100790000102F7D12B46324621464046BDE8F041E2
:1007A00000F0B1B9000000002D0000002B00000097
:1007B0002000000030B4002100F1240408E002F021
:1007C0000705D208303542EA4372DB086554491CFC
:1007D00052EA0305F3D10468002310A2250707D5C8
:1007E000A40600D421B1C46901230DA2641EC46112
:1007F00030BC00F088B910B5044621461068FFF7F8
:100800009DFE02462046BDE810400023D2E7D21DDF
:1008100022F00701D1E90023CCE70000000000002E
:1008200030000000F0B40D460188090502D5214CC6
:100830007C4402E01F4C7C440E34002100F124066D
:1008400008E002F00F071209E75D42EA03721B0994
:100850007754491C52EA0307F3D1027800231207A8
:1008600004D5702D06D009B1022311342246F0BC04
:1008700000F049B901231034F8E770B504460D467D
:1008800021461068FFF75AFE024629462046BDE879
:1008900070400023C6E7D21D22F00703D3E90023EE
:1008A000C0E70368126843F0200303600823C361B4
:1008B0000023B7E7BC2000002DE9F05F894604461D
:1008C0004FF0000ADFF874B1FB44C0F820A02046C6
:1008D000E1688847002874D0252806D0D4E9012192
:1008E0009047206A401C2062F1E700265F462046C0
:1008F000E16888472028054607DB312D05D27819A5
:1009000010F8200C08B10643F1E7B00701D526F036
:100910000406C4F81CA00027C4F818A02A2D09D08A
:10092000284601F092FE38B304EB8708303DC8F842
:10093000185019E059F8041B204604EB8702916116
:10094000E1688847012F054618D1E069002820DAC0
:1009500026F020061DE0D8F8180000EB800005EB1B
:1009600040003038C8F818002046E168884705463E
:1009700001F06BFE0028EED1012F0AD02E2D08D1F8
:100980002046E16888477F1C0546022F46F0200676
:10099000C4DBA069002803DA404246F00106A061EA
:1009A000F00701D026F010066C2D0BD0682D09D071
:1009B0004C2D39D06A2D35D0742D35D07A2D33D0C9
:1009C00016E038E0E1682F4620468847B8420546E1
:1009D00009D16C2F26D04FF48060E1680643204691
:1009E0008847054604E06C2F1AD04FF48070064308
:1009F0000DB3A5F14100192802D8203546F4006650
:100A00004A462946204626604E46FFF7F7FB80B14E
:100A100001280BD0F61D26F0070000F1080956E763
:100A20004020E4E78020D8E70020D6E706F104095B
:100A30004DE7284652E7206ABDE8F09F4C200000B1
:100A400000487047B8030020034640688C460028E1
:100A500018BF88423CBF03464068F8D31868184462
:100A6000884207D00CF1030020F00700001D411A56
:100A7000521A0146081D0A60FFF780BC30B5B0F17C
:100A80000A024FEA900E71F100034EEA817EB0EB4C
:100A90000E0061EB91014FEA101E4EEA017E10EB51
:100AA0000E0041EB11114FEA102E4EEA016E10EBD1
:100AB0000E0041EB11214FEA104E4EEA014E10EBB1
:100AC0000E0041EB1141401841F100014FEAD00006
:100AD00040EA41704FEAD10110EB80054FEA8104F2
:100AE00044EA907444EB01046D1944EB0404521B76
:100AF000A3414FF0000348BF0A3200D530BD401C6F
:100B000041F1000130BD2DE9F0470D46994692466E
:100B1000044600F124080168880604D5E06921F044
:100B20001001216000E00120A84201DD471B00E028
:100B30000027A1697A1902EB0900081AA061207840
:100B4000C00602D42046FFF7C9FC002608E0D4E91D
:100B500001211AF806009047206A401C761C20628A
:100B60004E45F4DB2078C0060AD52046FFF7B6FCD8
:100B700006E0D4E9012130209047206A401C206221
:100B8000381EA7F10107F4DC07E0D4E9012118F8C9
:100B900005009047206A401C2062281EA5F101052F
:100BA000F3DC2046FFF7B0FC2078000602D50220D7
:100BB000BDE8F0870120FBE770472DE9FF4F0C46A9
:100BC0001E464FF0FF378BB0D2E90001DDF86080A0
:100BD0000A908A46C1F30A5505B93D4600210846E8
:100BE0004FF00000BAF1000F00F4400005DA00EB0E
:100BF00080004FF4400101EA50004FEA9059B9F1EA
:100C0000010F00DDB9460A9850EA4A000ED044F6BA
:100C10001050A5F2FF3545432F14B8F1000F1ED038
:100C20007542291E1EDDC9F100021CE0B8F1010F5A
:100C30004FF0000001D0302103E0F24305E02154E1
:100C4000401CB042FBDB30460022002121540B99AE
:100C5000C1F80880C1E900200FB0BDE8F08FBD1BCE
:100C60006D1CDEE74A4600DA694206A800F0F6FB92
:100C700006AB93E8070003AB83E8070050460A99E8
:100C800000F0EEFC8DE80700A0F500501F38009042
:100C90000398002D0ADD42F21F014A460844002352
:100CA00003A90390684600F057FF09E0A0F5005043
:100CB0004A461F38002303A90390684600F061FFED
:100CC0008DE807000004000C03D04FF0FF3041080E
:100CD00000E01046B8F1000F03D000220092154644
:100CE0001EE0751E05D4FFF7C9FE303262556D1E39
:100CF000F9D5B3460122084302D000227F1C04E04C
:100D00002078302801D100227F1E002A099784D044
:100D10001DE0112D07DAFFF7B1FE303262556D1C70
:100D200050EA0102F5D1084302D00098C8B10EE0A4
:100D30000021681E05E0235C625C63542254401E5F
:100D4000491C8142F7DBAB46A81B401E09900020DE
:100D500004F80B000B98099AC0F80880C0E9002B32
:100D60007AE711264FF0000857E72DE9F04F884643
:100D70000446D21D22F0070191B0D1E90001CDE96E
:100D80000A0101F04AFC02460B98C00F01D02D2049
:100D900007E02068810701D52B2002E0202101EA2D
:100DA000C000032A099001D0072A05DB034641460B
:100DB000204600F013FB0BE12078800601D5E069A6
:100DC00000E00620B8F1650F814606D0B8F1660F45
:100DD00018D0B8F1670F70D131E00020B9F1110FD0
:100DE000009001DB112301E009F101030AAA01A926
:100DF0000CA8FFF7E2FEDDE90C70002609F1010501
:100E0000834647E001204B4600904FF000470AAA76
:100E100001A90CA8FFF7D1FEDDE90DB00C995D46E4
:100E2000002610B909F101000D18B9EB050003D433
:100E3000C0F1FF3609F10105A5EB09002BE0B9F17E
:100E4000010F01DA4FF001090020B9F1110F0090F4
:100E5000484601DD112300E003460AAA01A90CA8B7
:100E6000FFF7ABFEDDE90C704D4600268346207887
:100E700000070AD4AB4500DA5D4601A8012D04DD68
:100E8000411911F8011C302907D04F4502DA17F13A
:100E9000040F04DA012082460FE06D1EEEE7002FFA
:100EA00002DCED1B3E4403E0781CA84200DD7D1C03
:100EB000B81B00F1010A4FF000472078000703D467
:100EC000AA4501DB4FF0FF3A0021B7F1004F0DF1C9
:100ED00043088DF8431024D002202B23002F01DA81
:100EE0007F422D230A21021EA0F1010000DC5FB128
:100EF00097FBF1FC97FBF1F201FB1C7C17460CF110
:100F0000300C08F801CDEEE7A8F10100037021884C
:100F1000090501D5452100E06521A0F1010800F88F
:100F2000011C09980FA9A1EB0807FF1D00B10120C2
:100F3000411901EBEA70A1693844081A401EA0610A
:100F40002078C00602D42046FFF7C8FA099828B1D5
:100F5000D4E901219047206A401C20622078C00615
:100F600022D52046FFF7BAFA1EE0002E04DBB34577
:100F700002DD01A8805D00E03020D4E90121904726
:100F8000206A401C2062761CAAF101005FEA000A78
:100F90000AD100F01FFAC0680168405CD4E9012161
:100FA0009047206A401C2062281EA5F10105DCDC68
:100FB00007E0D4E9012118F8010B9047206A401C92
:100FC0002062381EA7F10107F3DC2046FFF79CFAE8
:100FD000032011B041E600002DE9F04F04460D4614
:100FE000D21D22F0070089B0D0E900974846394663
:100FF00001F013FB0246F80F01D02D2307E0206813
:10100000810701D52B2302E0202101EAC0038DF8DE
:1010100020300BB1012000E00020032A824601D0DD
:10102000072A04DB2946204600F0D8F93FE1207862
:10103000800601D40D2500E0E569C7F30A560D2DA1
:1010400049DA00214FEA175B08464FF00000002FF5
:1010500000F4400007DA00EB80004FF4400100EBA1
:10106000D07001EA60008115012901DD4FF0FF31E8
:1010700000224FEA850CBCF1180F06D31346ACF1E1
:1010800018004FF08052C24003E04FF4801323FA5F
:101090000CF30CF10C0CBCF1200F04D3ACF1200CC0
:1010A00009FA0CF001E007FA0CF000294FF00048B3
:1010B00001DD18B90FE00ED140450CD319EB020940
:1010C0005F4121B9404502D19F4329EA0209BBEBA8
:1010D000175F00D0761C2088000502D57B48784435
:1010E00002E07A487844193808AA302302F80A3016
:1010F000037C0AF10101002E0AF1020A53546A46E8
:1011000002DC4FF0300101E04FF031014FF00108F7
:101110008DF8001002D0A6F2FF3603E059EA47012D
:1011200000D06B4E002D02DC2178090704D54FF06A
:1011300002082E218DF80110C44600210BE0C7F3F0
:1011400003433F01C35C491C6D1E02F808300529AA
:1011500008F1010801DA002DF1DC00210CE000EBC0
:101160001973491C1B786D1E082902F808304FEAD4
:10117000091908F1010801DA002DF0DC21688B065D
:1011800002D516E0A8F10108E04505DD02EB0803F1
:1011900013F8013C302BF5D0B8F1000F09DD02EB5C
:1011A000080313F8013C2E2B03D1090701D4A8F141
:1011B0000108002D05DD3E2102F808106D1E08F122
:1011C0000108407C002E02F8080008F1010804DA4A
:1011D0002D20764202F8080002E02B2002F80800D9
:1011E0000A214FF47A70864208F101080BDB96FB66
:1011F000F0F3303302F8083096FBF0F308F1010801
:1012000000FB136601E0642E0CDB642096FBF0F318
:10121000303302F8083096FBF0F308F1010800FBC8
:10122000136601E00A2E06DB96FBF1F0303002F87F
:10123000080008F1010896FBF1F001FB1060303066
:1012400002F80800A16908F1010808EB050202EBA9
:101250000A00081AA0612078C00602D42046FFF7D1
:101260003DF9216A08AE01EB0A00206204E0D4E9EE
:10127000012116F8010B9047BAF1010AF7D2207844
:10128000C00602D52046FFF729F96E4609E016F898
:10129000010B3E280FD0D4E901219047206A401C61
:1012A0002062B8F10108F2D22046FFF72DF909B00B
:1012B0000320BDE8F08F206A2844206203E0D4E9CF
:1012C0000121302090476D1EEBD3F8E75A1800003B
:1012D00002FCFFFF10B5436913B1AFF3008001E0DA
:1012E000FFF735F9012010BD127800F124010A70D2
:1012F00000224A700122EDE711684FF0FF32E9E762
:1013000010B5436913B1AFF3008001E0FFF7B6F900
:10131000012010BD128800F1240182840022C284C1
:101320000122EDE711684FF0FF32E9E770B516468C
:101330000C46054600F046F8036893F801010128C1
:1013400006D0FF2C0FD8185D68B101202C7070BD3D
:10135000D3F807013246214603F207130344284617
:10136000BDE8704018474FF0FF3070BD10B500F079
:10137000F5F8BDE8104000F0ECB87546FFF760FBEB
:10138000AE4605006946534620F00700854618B072
:1013900020B5FEF7B1FFBDE820404FF000064FF04A
:1013A00000074FF000084FF0000B21F00701AC469A
:1013B000ACE8C009ACE8C009ACE8C009ACE8C009B9
:1013C0008D46704710B500F005F8001D10BD00BF38
:1013D000ED13000000487047D80300202DE9F041CC
:1013E0001F46044603260168072A01F4006004DB57
:1013F00008B116A505E016A503E008B115A500E0A3
:1014000015A521F010002060A069C01EA0610FB1D9
:10141000401EA0612046FFF761F84FB1D4E90121D9
:1014200038469047206A401C2062C01C206206E0BB
:10143000206AFAE7D4E9012115F8010B9047761EDE
:10144000F8D22046FFF760F8BDE8F0814E414E002B
:101450006E616E00494E4600696E66002DE9F047E8
:10146000814616468AB0354878440DC88DE80D008F
:1014700032487844801C03AC0DC884E80D0041F666
:101480009B300844372190FBF1F290FBF1F5A5F178
:10149000800501FB12041B3C02D56442012000E0E0
:1014A0000020DFF898A080460027FA44AAF1BE0A7F
:1014B0000EE0E0070AD03246684607EB47010123F9
:1014C0000AEB810100F05DFB8DE8070064107F1CD2
:1014D000002CEED1194F7F44AE3F19E0E80715D03C
:1014E00007EB04100DF1180A90E80E008AE80E00D0
:1014F000C068F04201D1981908903246012306A92C
:1015000003A800F03EFB03AB83E807006D10641CEA
:10151000002DE3D14FF0010332466946B8F1000FC8
:1015200003A802D000F018FB01E000F02AFBC9E993
:101530000001C9F808200AB0BDE8F0876015000076
:1015400010B50446AFF300802046BDE81040FEF71A
:10155000BEBE002801D001F07FB8704710B5012849
:1015600005D0002103A000F021F8012010BD09A141
:10157000F8E7000053494752544D454D3A204F7506
:1015800074206F662068656170206D656D6F72797B
:10159000000000003A2048656170206D656D6F7233
:1015A0007920636F727275707465640070B505465A
:1015B0000C460A2000E06D1C01F050F835B1287887
:1015C0000028F8D102E0641C01F048F814B120783A
:1015D0000028F8D1BDE870400A2001F03FB80000B3
:1015E0004FF0013C50F8042B51F8043B9A4221D1B2
:1015F000A2EB0C03934313EACC1317D150F8042B3E
:1016000051F8043B9A4215D1A2EB0C03934313EA21
:10161000CC130BD150F8042B51F8043B9A4209D15A
:10162000A2EB0C03934313EACC13DBD04FF0000082
:10163000704700BFD01A01BAB1FA81F101F0180168
:1016400022FA01F0CB40C1F12001DBB2C0B2C01AD6
:101650002CFA01F3D11A914311EAC311E6D1704774
:101660005FEA400C08BF91F0000F4FEA8C234FEA6D
:10167000C12243EA51514FEA1C5018BF00F5F04017
:101680004FEA300018BF41F000415FEA6C5C00F0A7
:101690002980BCF1FF3F08BF40F080407047130C29
:1016A00006BF12044FF0100C4FF0000C130E04BFD5
:1016B00012020CF1080C130F04BF12010CF1040C00
:1016C000930F04BF92000CF1020CD30F04BF520021
:1016D0000CF1010C11464FF00002A0F11F00A0EB2D
:1016E0000C00704711F0004F08BF704731F0004107
:1016F0003FF4D5AF0B0C06BF09044FF0100C4FF0B0
:10170000000C0B0E04BF09020CF1080C0B0F04BFF8
:1017100009010CF1040C8B0F04BF89000CF1020CC1
:10172000CB0F04BF49000CF1010CCCF12003A0EB5E
:101730000C0022FA03F302FA0CF241EA030100F171
:101740000100704720F07F4C80EA030023F07F47C0
:10175000ACEB070303F57C5300F0004003F1FF03FB
:101760002DE980494FEA154B09B44FEA144325EAA5
:101770000B4E24EA03480FF2042606EB1327490810
:101780003E785FEA320203FB0667C7F5000707FBF6
:1017900006F64FEA54374FEAD64606F1020607FB33
:1017A000066CCCF1005C4FEA1C472CEA074C07FBA7
:1017B00006F40CFB06F504EB15464FEA961634BF0B
:1017C00000204FF000404FEAD13706FB07FC4FEAFC
:1017D0001C4C0CFB0BF7D21B03FB0CF761EB070156
:1017E0000CFB0EF7B0EB074072EB17420CFB08F74F
:1017F00034BFA2EB0742B2EB074261EB17414FEA5D
:101800000C444FEA910706FB07FC4FEA1C4C0CFB0B
:101810000BF7B0EBC74072EB573203FB0CF734BF4A
:10182000A2EBC742B2EBC74261EB57310CFB0EF79C
:10183000B0EBC70072EB57720CFB08F734BFA2EB9A
:10184000C702B2EBC70261EB5771039F4FEA816198
:1018500041EA921104EBCC044FEAD1374FEA82629D
:1018600006FB07FC42EA90124FEA80604FEA1C4CEC
:101870000CFB0BF7D21B03FB0CF761EB07010CFB16
:101880000EF7B0EB074072EB17420CFB08F734BFC2
:10189000A2EB0742B2EB074261EB17414FEA8C55CE
:1018A0004FEA910704EB9C2406FB07FC4FEA1C4C13
:1018B0000CFB0BF7B0EBC74072EB573203FB0CF796
:1018C00034BFA2EBC742B2EBC74261EB57310CFB0E
:1018D0000EF7B0EBC70072EB57720CFB08F734BF82
:1018E000A2EBC702B2EBC70261EB577115EB4C25B7
:1018F0004FEA816141EA92114FEA82624FEAD137A1
:1019000042EA901206FB07FC44F100044FEA8060B3
:101910004FEA1C4C0CFB0BF7D21B03FB0CF761EBE3
:1019200007010CFB0EF7B0EB074072EB17420CFB04
:1019300008F734BFA2EB0742B2EB074261EB174155
:1019400015EB1C154FEA813141EA92414FEA823290
:1019500042EA90424FEA80304FEA0C7644F10004AC
:1019600048EA03434EEA0B484FF0000EB2EB080C76
:1019700071EB030724BF624639464EEB0E0E4FF063
:10198000000B0018524149414BEB0B0BB2EB080C1A
:1019900071EB03077BF1000B24BF624639464EEB27
:1019A0000E0E4FF0000B0018524149414BEB0B0B50
:1019B000B2EB080C71EB03077BF1000B24BF62460E
:1019C00039464EEB0E0E51EA020718BF46F00106EB
:1019D00016EB0E7655F1000254F1000103D5BDE877
:1019E0008901BDE80088BDE88901BDE80048B61955
:1019F000524141EB0101A3F10103704780807F7EDA
:101A00007D7C7B7A79787776767574737271717074
:101A10006F6E6E6D6C6C6B6A6A6968686766666526
:101A20006464636362616160605F5F5E5E5D5D5CB4
:101A30005C5B5B5A5A595958585757565655555525
:101A40005454535352525251515050504F4F4F4E85
:101A50004E4D4D4D4C4C4C4B4B4B4A4A4A494949D3
:101A60004848484747474746464645454544444415
:101A7000444343434342424242414141002B9C463E
:101A800030D477002BD01CB54FEA370703B44FF0A2
:101A900010004FF01001BAF1000F06D0BCF1000F9A
:101AA000DCBF40F0080040F008014FF000000FBC20
:101AB000BDE810400BF1010BBBF1010F08BF5FEA5D
:101AC000170722BF12F1010211F101014FF000418D
:101AD00043F1000300F0004043EA00007047F9D3EF
:101AE0005708D0E746EA064613F1400F4FEA16467C
:101AF0001FDD13F1200FDFBF16430A4600212033FC
:101B00005B42BED0C3F1200746EA064602FA07F759
:101B10004FEA164646EA0706C3F1200722FA03F207
:101B200001FA07F721FA03F14FF0000342EA070236
:101B3000A7E746EA020646EA06464FEA164646EA9E
:101B40000106BCBF46EA0646360C4FF000034FF0D4
:101B500000024FF0000194E72DE9804C9A4693462D
:101B600070B491E8380007C831EA400C48BF34EA45
:101B7000430C03D5FFF7E6FDFFF780FFF0BCBDE89F
:101B8000008C2DE9804C9A46934670B491E8380059
:101B900007C810F0804F08BF13F0804F03D100F04A
:101BA00005F8FFF76BFFF0BCBDE8008C20F07F4725
:101BB00080EA030023F07F4C07EB0C03A3F57C5372
:101BC00000F00040A3F1FE0392F0000F00F0B3809C
:101BD00095F0000F00F077802DE901494FEA1140A0
:101BE0004FEA144621EA004800FB06FC24EA0647B7
:101BF00008FB06F607FB08F800FB07F718EB06489A
:101C00004CEB164C4FEA124B18EB07484FEA1546BF
:101C10004CEB174022EA0B4E0BFB06FC25EA06476D
:101C20000EFB06F607FB0EFE0BFB07F71EEB064E40
:101C30004CEB164C4FF000061EEB074E4CEB174BCF
:101C400018EB0B0840F1000018EB0E0B58EB0008E6
:101C500040F100008F1A4FF000013CBFC943661BE2
:101C600014BFB5EB040C00213CBFC943F61B4FEA7F
:101C700017444EEA8E0E27EA04454FEA1C4704FB40
:101C800007622CEA074C05FB07F70CFB05F604FB83
:101C90000CFC16EB074642EB174216EB0C4642EBE8
:101CA0001C421BEB060658EB0202414146EA9E0627
:101CB00001D5BDE80189B619524141EB0101A3F1FB
:101CC0000103BDE801894FEA14454FEA114724EAB0
:101CD000054621EA074C05FB07F406FB07F70CFB5A
:101CE00006F105FB0CFC11EB074144EB17444FEAEE
:101CF000124711EB0C4144EB1C4422EA074C05FB54
:101D000007F206FB07F70CFB06F605FB0CFC16EBCF
:101D1000074642EB174216EB0C4642EB1C456A188D
:101D200054F1000148BF7047B619524141EB01011F
:101D3000A3F10103704795F0000F37D04FEA11422D
:101D40004FEA144721EA024624EA074C02FB07F156
:101D500006FB07F70CFB06F402FB0CFC14EB074434
:101D600041EB17414FEA154714EB0C4441EB1C4182
:101D700025EA074C02FB07F506FB07F70CFB06F606
:101D800002FB0CFC16EB074645EB174516EB0C4621
:101D900045EB1C42121951F1000148BF7047B619BA
:101DA000524141EB0101A3F1010370474FEA144591
:101DB0004FEA114724EA054621EA074C05FB07F1E3
:101DC00006FB07F70CFB06F24FF0000605FB0CFCC8
:101DD00012EB074241EB174112EB0C4251EB1C4155
:101DE00048BF7047921841EB0101A3F1010370470E
:101DF00000BFFEE77047F0B50A460021002300242B
:101E000000BF3DE0012505FA01F3156805EA03046A
:101E10009C4234D105684F000326BE40B54305609F
:101E200015794E00B5400668354305601579012DDA
:101E300002D01579022D16D185684F000326BE40C9
:101E4000B543856055794E00B54086683543856059
:101E5000456801268E40B5434560456896798E40B9
:101E6000B6B235434560C5684F000326BE40B54352
:101E7000C560D5794E00B540C6683543C560491C7C
:101E80001029BFD3F0BDF0B5002300244D07ED0E9F
:101E900002FA05F3CE1000F1200555F826504E0742
:101EA000F70E0F26BE40B543CF1000F1200646F8CE
:101EB0002750CE1000F1200555F8265045EA0304BE
:101EC000CE1000F1200545F82640F0BD0183704793
:101ED00000BFFEE71CB50121202000F067F84FF499
:101EE000C060009001208DF8040000208DF80600ED
:101EF00003208DF8050001208DF80700694604488D
:101F0000FFF779FF4FF4C0610148FFF7DFFF1CBD09
:101F10000014024000BFFEE77047000070B50021CA
:101F200000230F22C4781CB3174C246804F4E06427
:101F3000C4F5E064C4F30721C1F10404E3B20A412B
:101F400044789C40E1B28478144021430C07210E70
:101F50000E4C05786155047804F01F050124AC404F
:101F600005786D11AD0005F1E025C5F8004109E0E7
:101F7000047804F01F050124AC40054D0678761165
:101F800045F8264070BD00000CED00E000E400E0E4
:101F900080E100E002490143024A116070470000FD
:101FA0000000FA050CED00E07047000029B1064A78
:101FB00012680243044B1A6004E0034A1268824329
:101FC000014B1A60704700003038024029B1064AC0
:101FD00012680243044B1A6004E0034A1268824309
:101FE000014B1A607047000044380240F0B50021F0
:101FF00000220024022500260223324F3F6807F00A
:102000000C0121B1042905D0082937D105E02E4F54
:10201000076036E02D4F076033E02A4F3F1F3F68CF
:10202000C7F38056274F3F1F3F6807F03F036EB14D
:10203000264FB7FBF3F7DFF88CC0ACF1040CDCF8EB
:1020400000C0CCF3881C07FB0CF40CE01E4FB7FB60
:10205000F3F7DFF870C0ACF1040CDCF800C0CCF38F
:10206000881C07FB0CF4174F3F1F3F68C7F301475D
:102070007F1C7D00B4FBF5F7076002E0124F07609C
:1020800000BF00BF0F4F3F6807F0F0010909104F74
:102090007A5C0768D74047600A4F3F6807F4E05111
:1020A000890A0B4F7A5C4768D7408760054F3F68C5
:1020B00007F46041490B064F7A5C4768D740C76018
:1020C000F0BD0000083802400024F40040787D0193
:1020D000140000207047000010B504462146054852
:1020E00000F095FA00BF4021024800F0C5F9012830
:1020F000F9D110BD0010014010B5044603E020786E
:10210000FFF7EAFF641C20780028F8D110BD00001A
:102110000FB4F8B5002507A800901548009A069955
:10212000FEF754F91248FEF763F905462E1D3046B6
:10213000FEF7F5F804462320207040206070A5705B
:10214000002004E00A490A5CC11C6254401CA842F9
:10215000F8DB0021E81C21542046FFF7CDFF0020CA
:1021600000902046FEF70AF9F8BC5DF814FB000069
:10217000280000200CB50020019000903448006831
:1021800040F480303249086000BF3148006800F4F4
:10219000003000900198401C0190009818B90198F7
:1021A000B0F5A04FF1D12A48006800F4003010B11A
:1021B0000120009001E0002000900098012846D105
:1021C00023484030006840F0805021494031086089
:1021D0002048006840F440401E4908601C48083010
:1021E00000681B49083108600846006840F4004058
:1021F00008600846006840F4A05008601648091FAF
:102200000860081F006840F08070091F086000BF68
:102210000F48006800F000700028F9D040F2057007
:102220000E4908600A480830006820F00300084999
:10223000083108600846006840F00200086000BFEE
:1022400003480830006800F00C000828F8D10CBDE5
:10225000003802400070004019544007003C024022
:10226000042808D14FF0E021096941F004014FF042
:10227000E022116107E04FF0E021096921F004013B
:102280004FF0E022116170477047000010B515480B
:10229000006840F47000134908601348006840F07B
:1022A00001001149086000200F49083108600E48FC
:1022B00000680E4908400C4908600D48091D086077
:1022C000081F006820F48020091F086000200649CC
:1022D0000C310860FFF74EFF4FF000600149803974
:1022E000086010BD88ED00E000380240FFFFF6FEF8
:1022F0001030002421B1028842F00102028004E083
:1023000002884FF6FE731A400280704741627047A0
:1023100010B540F225511D4800F0BBF810B31B4822
:1023200000F070F9C4B21A48008800F40040C8B93F
:102330001748008800F4804060B10A2C03D00020C8
:102340001349088020E01248008840F400401049FA
:10235000088019E00D2C06D10D48008840F480401B
:102360000B49088010E00A480088C0F30D000949B5
:102370000C5407480088401C05490880084600881E
:10238000C72801DD0020088010BD000000100140BA
:1023900010000020EF02002010B540F22551114836
:1023A00000F077F8E0B10F4800F02CF9C4B2242C0B
:1023B00007D10D200C49086008460068401E0860DF
:1023C0000EE009480068002805DD07480068C0F1F4
:1023D0000D0006490C5404480068401E024908607C
:1023E00010BD00000044004008000020E202002070
:1023F00010B540F22551164800F04BF8F8B11448DA
:1024000000F000F9C4B21348008800F40040B0B9ED
:1024100010480088C82813DA00210F48FFF776FF1C
:102420000C48008818B901210B48FFF763FF0948E1
:1024300001880088401C074A10800848445405E081
:102440000448008840F400400249088010BD0000A4
:10245000004800401200002000140040F00100205D
:1024600021B1828942F40052828104E082894DF6D2
:10247000FF731A408281704702460020B1F5007F49
:1024800000D100BF13880B400BB1012000E00020F9
:10249000704770B50246002400230025002040F656
:1024A0006A16B14200D100BFC1F3421501F01F030B
:1024B000012606FA03F3012D02D19689334006E086
:1024C000022D02D1168A334001E0968A33400C1265
:1024D000012606FA04F41688344013B10CB1012029
:1024E00000E0002070BDF0B5034600240026002562
:1024F000002040F66A17B94200D100BF1846C1F368
:10250000421401F01F06012707FA06F5012C01D13C
:102510000C3004E0022C01D1103000E014301AB16C
:1025200007682F43076002E00768AF430760F0BD0C
:102530002DE9FF4705460E460024A14600BFA046F0
:10254000B08900B100BF2C8A24F44054F0880443C1
:102550002C82AC8941F20C608443B08831890843F5
:10256000718908430443AC81AC8A24F44074B08977
:102570000443AC826846FFF739FD2048854202D00B
:102580001F48854202D1DDF80C9001E0DDF808908B
:10259000A88900F4004040B109EBC90000EB091024
:1025A00031684900B0FBF1F707E009EBC90000EB27
:1025B000091031688900B0FBF1F76420B7FBF0F037
:1025C00004012009642101FB1078A88900F400406F
:1025D00040B1322000EBC800B0FBF1F000F0070082
:1025E000044308E0322000EB08106421B0FBF1F056
:1025F00000F00F0004432C81BDE8FF87001001406C
:102600000014014001468888C0F308007047C1F3F8
:1026100008028280704700BFFEE703B401984100C2
:10262000009850EAC12018BF04204A0D18BF40F09E
:10263000010040F2FF72B2EB515F08BF40F00200B0
:10264000012808BF052002B0704730380A2801D29F
:10265000012070470020704700BF704700BF7047DF
:1026600010B504466FF00400FFF7FAFDE11704EB24
:102670005171C1F3C701074A11701046007800EB91
:102680004001C1EBC0104FF6FF7101EAC0000249E2
:10269000088010BD00000020020000202DED028BFC
:1026A0009FED0E0A10EE104A4FF4A060FFF772FC87
:1026B000A820FFF7D5FF4FF4E13000F013F8FFF743
:1026C00009FC09E0204600F095F841EC180B53ECAA
:1026D000182B03A0FFF71CFDF4E700001F85DE4266
:1026E0002566000010B588B0044601210846FFF7B2
:1026F0005DFC01211020FFF769FC07220921224817
:10270000FFF7C1FB07220A211F48FFF7BCFB4FF46C
:10271000C060069002208DF81C008DF81D0000207E
:102720008DF81E0001208DF81F0006A91648FFF73E
:1027300062FB02940020ADF80C00ADF80E00ADF87D
:102740001000ADF814000C20ADF8120002A90F48DB
:10275000FFF7EEFE01210D48FFF782FE012240F255
:1027600025510A48FFF7BFFE25208DF804000320FD
:102770008DF805008DF8060001208DF8070001A8EE
:10278000FFF7CCFB08B010BD000002400010014074
:1027900010B500290AD00878002807D005487844E9
:1027A000FEF71EFF002801D0002010BD024878442B
:1027B00010BD0000660200005E02000010B5002996
:1027C0000AD00878002807D005487844FEF708FFAB
:1027D000002801D0002010BD0248784410BD000040
:1027E000560200004E0200000808A0F500114FEA52
:1027F0003101704743004FEAD30C4FEA3C0C434091
:102800001FBF40070CF1605113F0FE4F70471CF0E2
:10281000006F03D100200CF0004170470CF0004322
:1028200043EA507010B540EACC0000F00EF800BF4B
:10283000000000924FEA0001FFF7D6BF4FF00041C1
:102840004FF00000A1F5002170470EF1020E2EF0AE
:10285000030E5EF8044B244204D44FEA4102B2F165
:102860007F4F11D84FEA4003B3F17F4F0CD80ED100
:102870004FEAD07CB2F17F4F0CEB4C0C0CF1020C08
:1028800008BF4CEBD17C04E04FF0080C01E04FEAAC
:10289000D17C0CEB4C0324FA03F404F00704B4F1EC
:1028A000040C06D20EEB840CBDE810404CF0010C79
:1028B0006047DFE80CF0070802024FF00040A0F587
:1028C000800010BD0846420018BFD2F1807288BF58
:1028D00000F0004010BD4FF04070E1EE100A70476C
:1028E000FEF743BAFEF778BB0000000000000000CE
:1028F0003031323334353637383941424344454636
:10290000403058003031323334353637383961622F
:102910006364656640307800040000080000000031
:10292000000000020001000010303132333435362F
:1029300037383961626364656678700030313233EC
:102940003435363738394142434445465850000003
:1029500002400000000000A0000000000540000050
:10296000000000C8000000000C4000000000409C77
:1029700000000000194000000020BCBE0000000064
:1029800034400000BFC91B8E00000004B5400000A9
:10299000504BCFD06607E2CF010000006C41000031
:1029A0003E8251AADFEEA73401000000D9420000A8
:1029B000DCB5A0E23A301F97FFFFFFFFB4450000EF
:1029C000FD25A0C8E9A3C14FFFFFFFFFFF3F0000A7
:1029D0000000008000000000FF3F000000000080B9
:1029E00000000000302B0008000000202400000040
:1029F000C4010008542B000824000020F409000042
:102A0000E00100081C00000043000000F8FFFFFF89
:102A10000C0000000E0000000F0000002E0000005F
:102A20001001000043000000F8FFFFFF004040409D
:102A30004040404040404141414141404040404091
:102A4000404040404040404040404040400502023D
:102A500002020202020202020202020202202020FC
:102A60002020202020202002020202020202909058
:102A70009090909010101010101010101010101056
:102A800010101010101010100202020202028888AA
:102A900088888888080808080808080808080808B6
:102AA000080808080808080802020202400000009E
:102AB0000000000000000000000000000000000016
:102AC0000000000000000000000000000000000006
:102AD00000000000000000000000000000000000F6
:102AE00000000000000000000000000000000000E6
:102AF00000000000000000000000000000000000D6
:102B000000000000000000000000000000000000C5
:102B100000000000000000000000000000000000B5
:102B200000000000000000000000000000000000A5
:102B30000000000000000000000000000000000095
:102B40000000000000000000010203040102030471
:042B50000607080963
:040000050800018965
:00000001FF
